{"abi":[{"type":"constructor","inputs":[],"stateMutability":"nonpayable"},{"type":"function","name":"closeTask","inputs":[{"name":"id","type":"uint256","internalType":"uint256"},{"name":"accepted","type":"bool","internalType":"bool"},{"name":"uri","type":"string","internalType":"string"}],"outputs":[],"stateMutability":"nonpayable"},{"type":"function","name":"nextTaskId","inputs":[],"outputs":[{"name":"","type":"uint256","internalType":"uint256"}],"stateMutability":"view"},{"type":"function","name":"openTask","inputs":[{"name":"usdcBudget","type":"uint256","internalType":"uint256"},{"name":"evidenceHash","type":"bytes32","internalType":"bytes32"},{"name":"label","type":"string","internalType":"string"}],"outputs":[{"name":"id","type":"uint256","internalType":"uint256"}],"stateMutability":"nonpayable"},{"type":"function","name":"owner","inputs":[],"outputs":[{"name":"","type":"address","internalType":"address"}],"stateMutability":"view"},{"type":"function","name":"taskProofs","inputs":[{"name":"","type":"uint256","internalType":"uint256"}],"outputs":[{"name":"actor","type":"address","internalType":"address"},{"name":"usdcBudget","type":"uint256","internalType":"uint256"},{"name":"evidenceHash","type":"bytes32","internalType":"bytes32"},{"name":"label","type":"string","internalType":"string"},{"name":"closed","type":"bool","internalType":"bool"}],"stateMutability":"view"},{"type":"event","name":"TaskClosed","inputs":[{"name":"id","type":"uint256","indexed":true,"internalType":"uint256"},{"name":"accepted","type":"bool","indexed":false,"internalType":"bool"},{"name":"uri","type":"string","indexed":false,"internalType":"string"}],"anonymous":false},{"type":"event","name":"TaskOpened","inputs":[{"name":"id","type":"uint256","indexed":true,"internalType":"uint256"},{"name":"actor","type":"address","indexed":true,"internalType":"address"},{"name":"usdcBudget","type":"uint256","indexed":false,"internalType":"uint256"},{"name":"evidenceHash","type":"bytes32","indexed":false,"internalType":"bytes32"},{"name":"label","type":"string","indexed":false,"internalType":"string"}],"anonymous":false}],"bytecode":{"object":"0x608060405234801561001057600080fd5b50600080546001600160a01b0319163317905561086f806100326000396000f3fe608060405234801561001057600080fd5b50600436106100575760003560e01c80637830d4581461005c5780638da5cb5b14610089578063c798302a146100b4578063f34e06c4146100d5578063fdc3d8d7146100ea575b600080fd5b61006f61006a3660046104cc565b6100f3565b6040516100809594939291906104e5565b60405180910390f35b60005461009c906001600160a01b031681565b6040516001600160a01b039091168152602001610080565b6100c76100c23660046105a9565b6101b9565b604051908152602001610080565b6100e86100e33660046105fc565b6103a4565b005b6100c760015481565b600260208190526000918252604090912080546001820154928201546003830180546001600160a01b039093169493919261012d90610645565b80601f016020809104026020016040519081016040528092919081815260200182805461015990610645565b80156101a65780601f1061017b576101008083540402835291602001916101a6565b820191906000526020600020905b81548152906001019060200180831161018957829003601f168201915b5050506004909301549192505060ff1685565b60008085116101fa5760405162461bcd60e51b815260206004820152600860248201526706275646765743d360c41b60448201526064015b60405180910390fd5b836102345760405162461bcd60e51b815260206004820152600a602482015269065766964656e63653d360b41b60448201526064016101f1565b600282116102725760405162461bcd60e51b815260206004820152600b60248201526a1b1858995b081cda1bdc9d60aa1b60448201526064016101f1565b6001600081546102819061067f565b91905081905590506040518060a00160405280336001600160a01b0316815260200186815260200185815260200184848080601f016020809104026020016040519081016040528093929190818152602001838380828437600092018290525093855250505060209182018190528381526002808352604091829020845181546001600160a01b0319166001600160a01b0390911617815592840151600184015590830151908201556060820151600382019061033e908261070b565b50608091909101516004909101805460ff1916911515919091179055604051339082907f2cf9d448d09d9f7fb8f792f5f811e4fbc08beb50d6d56368f084ef1ca24f8e35906103949089908990899089906107f4565b60405180910390a3949350505050565b6000546001600160a01b031633146103eb5760405162461bcd60e51b815260206004820152600a60248201526937b7363c9037bbb732b960b11b60448201526064016101f1565b600084815260026020526040902080546001600160a01b031661043a5760405162461bcd60e51b81526020600482015260076024820152663ab735b737bbb760c91b60448201526064016101f1565b600481015460ff16156104785760405162461bcd60e51b815260206004820152600660248201526518db1bdcd95960d21b60448201526064016101f1565b60048101805460ff1916600117905560405185907f09ea014269d4b79be562de231b2a7c8f8116d8e680c327e7f7ee4f5b189c34c2906104bd90879087908790610814565b60405180910390a25050505050565b6000602082840312156104de57600080fd5b5035919050565b60018060a01b038616815260006020868184015285604084015260a0606084015284518060a085015260005b8181101561052d5786810183015185820160c001528201610511565b50600060c0828601015260c0601f19601f83011685010192505050610556608083018415159052565b9695505050505050565b60008083601f84011261057257600080fd5b50813567ffffffffffffffff81111561058a57600080fd5b6020830191508360208285010111156105a257600080fd5b9250929050565b600080600080606085870312156105bf57600080fd5b8435935060208501359250604085013567ffffffffffffffff8111156105e457600080fd5b6105f087828801610560565b95989497509550505050565b6000806000806060858703121561061257600080fd5b843593506020850135801515811461062957600080fd5b9250604085013567ffffffffffffffff8111156105e457600080fd5b600181811c9082168061065957607f821691505b60208210810361067957634e487b7160e01b600052602260045260246000fd5b50919050565b60006001820161069f57634e487b7160e01b600052601160045260246000fd5b5060010190565b634e487b7160e01b600052604160045260246000fd5b601f82111561070657600081815260208120601f850160051c810160208610156106e35750805b601f850160051c820191505b81811015610702578281556001016106ef565b5050505b505050565b815167ffffffffffffffff811115610725576107256106a6565b610739816107338454610645565b846106bc565b602080601f83116001811461076e57600084156107565750858301515b600019600386901b1c1916600185901b178555610702565b600085815260208120601f198616915b8281101561079d5788860151825594840194600190910190840161077e565b50858210156107bb5787850151600019600388901b60f8161c191681555b5050505050600190811b01905550565b81835281816020850137506000828201602090810191909152601f909101601f19169091010190565b8481528360208201526060604082015260006105566060830184866107cb565b83151581526040602082015260006108306040830184866107cb565b9594505050505056fea2646970667358221220ec1a53ff16b95eef3215cc15d09baabd39266a6f63b4c2c84cee228acb7405d064736f6c63430008140033","linkReferences":{}},"methodIdentifiers":{"closeTask(uint256,bool,string)":"f34e06c4","nextTaskId()":"fdc3d8d7","openTask(uint256,bytes32,string)":"c798302a","owner()":"8da5cb5b","taskProofs(uint256)":"7830d458"},"id":0}